:0300000002411AA0
:0C411A00787FE4F6D8FD75815D024161FC
:10286B006100000000FFFFFFFFFFFF00093A1500AA
:10287B0000000000301A0104A0221378E63825A4CA
:10288B0057539E2610505400000001010101010115
:10289B0001010101010101010101B01D56C25000EE
:1028AB00263030203A0058C110000018000000FC00
:1028BB000041554F0A2020202020202020200000FE
:1028CB0000FE0047313536585730312D56310A202E
:1028DB00000000FF003030363134333531393034BD
:1028EB0030300039020312F123090707830100007E
:1028FB0065030C0010000000000000000000000049
:10290B0000000000000000000000000000000000BC
:10291B0000000000000000000000000000000000AC
:10292B00000000000000000000000000000000009C
:10293B00000000000000000000000000000000008C
:10294B00000000000000000000000000000000007C
:10295B00000000000000000000000000000000006C
:04296B00000000B6B2
:0B2FA7009002BEEBF0A3EAF0A3E9F0FB
:102FB2009002AEE0FEA3E0FF9002ADE02FFF900290
:102FC200ACE03EFE9002B1E02FFF9002B0E03E90F6
:102FD20002C1F0A3EFF09002B7E0FF9002B6E02F3B
:102FE200FFE433FE9002B8E07C002FFFEC3E90023B
:102FF200C3F0A3EFF0E47B0AFAF9F89002A4E0FC34
:10300200A3E0FDA3E0FEA3E0FF1213CA9002BEE01C
:10301200FBA3E0FAA3E0F9EF12128EE47B0AFAF9BD
:10302200F89002A4E0FCA3E0FDA3E0FEA3E0FF12FF
:1030320013CAE4FB7A01F9F81213CA9002BEE0FB4C
:10304200A3E0FAA3E0F9900001EF1212A09002AA05
:10305200E0FEA3E09000021212A09002C2E09000F3
:10306200031212A0EEC4F8540FC868FFAD07900215
:10307200C1E02D9000041212A09002B5E09000056C
:103082001212A09002C4E09000061212A09002B4A4
:10309200E0C4F8540FC868FFAC079002C3E02C905C
:1030A20000071212A09002ADE09000081212A09048
:1030B20002AFE09000091212A09002B6E0540FC4D1
:1030C20054F0FFA3E0540F2F90000A1212A09002B6
:1030D200AEE0C4F8540FC868FFAC079002ACE07EC3
:1030E200007806C333CE33CED8F92CFF9002B6E077
:1030F200C4540F25E025E02FFFA3E0C4540F2F9006
:10310200000B1212A09002ABE090000C1212A090E1
:1031120002B5E090000D1212A09002B4E02D9000D2
:103122000E1212A09002B9E025E04418FFA3E02598
:0A313200E025E04F9000110212A00A
:0B41A6009002BEEBF0A3EAF0A3E9F0EA
:1041B100E4FFFEEEC3947F7480948050189002BE99
:1041C100E0FBA3E0FAA3E0F98E827583001212618D
:1041D1002FFF0E80DEC3E49FFF9002BEE0FBA3E051
:1041E100FAA3E0F990007FEF1212A0E4FFFEEEC304
:1041F100947F74809480501EEE2480FDE433FC9003
:1042010002BEE0FBA3E0FAA3E0F98D828C831212D7
:10421100612FFF0E80D8C3E49FFF9002BEE0FBA395
:0C422100E0FAA3E0F99000FFEF0212A009
:0B296F004402E6000000004102DA0014
:10297A005702A400010A77035C0320001400140024
:10298A0014052A05001E0408010143029E060200DE
:0F299A004302A10407004602980000002529020D
:10497F00900298E090D20CF0900299E090D20DF056
:10498F0090029AE090D20EF090029BE090D20FF03E
:10499F0090029CE090D210F090029DE090D211F026
:0149AF0022E5
:104B75009002DB7401F09002E4F09002D8F090020C
:104B8500E0F0E49002EBF09002E5F09002F0F00224
:024B95002C51A1
:104CBE00758911C28CC28A758CF7758A40C28E7541
:094CCE008DB1758BE075A88E22F2
:070003009090627499F02255
:104CD70090B012743CF090DAA3744BF090DAA4749D
:094CE70005F090B0307446F02293
:104CF00090DAA374E1F090DAA47405F090B0307407
:094D000042F090B012743EF02262
:1049130090C1AF74C3F090DAFC740FF090DAA37413
:10492300E1F090DAA47405F090B0307442F0900294
:10493300D9E0441190D800F090B012743EF0E478BE
:0649430043F67823F62282
:074C6E00F0124D54124CA49A
:104C750090D005E04440F090A0307480F090C006DC
:044C85007408F0229D
:104AB70090A09074FBF090B005746FF07F017E00BA
:104AC700124A4690B00574E0F07F017E00124A4614
:074AD70090B005742BF022E2
:104D540090D005E04403F090A0A174FFF0747FF0BC
:054D640090A091F02277
:104CA400E490D219F090D21C74FEF090A090E054DD
:0A4CB400FEF090A0A0E054FEF022F4
:1046DE00780DE664017046F690024AE06411700CA3
:1046EE00780E76017406F0E4900258F090024AE0DB
:1046FE00640670297F587E02124A4690026E740735
:10470E00F090021D740AF090024A74FFF01242B348
:0E471E00E4900258124C6E9002F77401F022E3
:104B97009002DBE060127B017A007936122FA77B47
:104BA700017A007948122FA77B017A007900024128
:014BB700A657
:06451E007E007D007C0020
:104524009002BE12149390D8557480F09002BEE0AD
:10453400FCA3E0FDA3E0FEA3E0FF781012146DEFEE
:10454400540FFF90D852EFF09002BEE0FCA3E0FDC0
:10455400A3E0FEA3E0FF780812146D90D851EFF0A9
:104564009002BEA3A3A3E0FF90D850EFF09002C244
:06457400E090D853F02294
:103BBC009002C27412F07F0012451E90029EE0909B
:103BCC0002C2F07F0112451E90029FE044809002D9
:103BDC00C2F07F0212451E9002A0E09002C2F07F5C
:103BEC000312451E9002C27401F07F0412451EE4BC
:103BFC009002C2F07F05FEFDFC124524E49002C247
:103C0C00F07F06FEFDFC1245249002C27401F07F89
:103C1C000712451E9002C27402F07F0812451EE482
:103C2C009002C2F07F09FEFDFC124524E49002C212
:103C3C00F07F0AFEFDFC124524E49002C2F07F0BDB
:103C4C00FEFDFC124524E49002C2F07F0DFEFDFC4B
:103C5C001245249002C27404F07F0E12451EE490AB
:103C6C0002C2F07F0FFEFDFC124524E49002C2F06C
:103C7C007F20FEFDFC124524E49002C2F07F21FE61
:103C8C00FDFC1245249002C27401F07F007E027D7F
:063C9C00007C000245243B
:104B2B009002D8E0700D90026E740AF090021DF0A6
:104B3B000242B3E490C006F07F01FE124A4690C0D9
:054B4B00067408F022D1
:104D090090A046E04480F054BFF090B08CE044702D
:094D1900F090A048E04404F022EF
:104D220090A046E04480F054BFF090B08CE044770D
:094D3200F090A048E054FBF022CF
:104DA70090B08DE04407F090A046E054F7F044043B
:024DB700F022E8
:0F4DB90090B08DE04407F090A046E0440CF0224B
:104D690090A046E04408F090B08D7407F090A048F8
:054D7900E04410F022EF
:104D7E0090A046E04408F090B08D7407F090A048E3
:054D8E00E054EFF022EB
:103AD3007FDB7ED1124C4BEF9002BEF0A3E4F07F6C
:103AE300DC7ED1124C4B9002BFE02FF09002BEE07F
:103AF3003400F07FE77ED1124C4BEF9002C0F0A36D
:103B0300E4F07FE87ED1124C4B9002C1E02FF0909D
:103B130002C0E03400F07FDD7ED1124C4BEF900207
:103B2300C2F0A3E4F07FDE7ED1124C4B9002C3E0DF
:103B33002FF09002C2E03400F07FE97ED1124C4BAB
:103B4300EF9002C4F0A3E4F07FEA7ED1124C4B90D5
:103B530002C5E02FF09002C4E03400F09002BEE012
:103B6300FEA3E0FF9002A8E0B50641A3E0B5073C41
:103B73009002C0E0FEA3E0FF9002AAE0B5062DA3E9
:103B8300E0B507289002C2E0FEA3E0FF9002B2E096
:103B9300B50619A3E0B507149002C4E0FEA3E0FF45
:103BA3009002B4E06E7003A3E06F60079002DA74D2
:083BB30001F022E49002DAF0B7
:013BBB0022E7
:1037A9007F547ED1124C4BEF9002F9F0A3E4F07FE5
:1037B900557ED1124C4B9002FAE02FF09002F9E0BD
:1037C9003400F0E0FEA3E0FFC39422EE9400500819
:1037D900EF941EEE94005066C3EF942EEE940050C1
:1037E90008EF942AEE94005055C3EF9432EE9400FA
:1037F9005008EF942EEE94005044C3EF945AEE947F
:10380900005008EF9456EE94005033C3EF9462EEE3
:1038190094005008EF945EEE94005022C3EF94B2E6
:10382900EE94005008EF94AEEE94005011C3EF945B
:10383900C2EE94005050EF94BEEE940040489002BE
:10384900E2E0FEA3E0FF24FEFDEE34FFFC9002F966
:10385900E0FAA3E0FBC39DEA9C400EEF2402FFE4DB
:103869003EFED3EB9FEA9E400D124D097FC87E00B4
:10387900124A1C124D229002F9E0FFA3E09002E2E5
:10388900CFF0A3EFF0229002F9E0FEA3E0FF4E7023
:10389900259002E2E0FCA3E0FDEF6D7002EE6C60A2
:1038A900159002E2EEF0A3EFF0124D097FC87E00F9
:0638B900124A1C124D2210
:0138BF0022E6
:102C5100E49002BBF0A3F0A3F09002E2F0A3F090A5
:102C610002EFF09002D9F07FC8FE124A461200032B
:102C710012497F124D22124CBE90C1177401F012FD
:102C81004B9712472C123BBCE490D212F07838F6E5
:102C91009002ECF09002DAF090D221748FF090D291
:102CA1002274FFF090D2677422F09002D8E0700B8A
:102CB100124AB71249E0124913800AD2AF9002F7C3
:102CC1007401124C6E9002D8E070031246DE90D26D
:102CD10017E020E603022D899002BBE004F0E064D6
:102CE1000A70E2F090D212E0700C9002DAE0700605
:102CF1009002ECE0607290B8B0E030E5C830E6C513
:102D01007FC87E00124A1C12367BEF70B890D21237
:102D1100F0783876019002DAF09002ECF012457A00
:102D2100124D54124A8E9002BD7401F07F0A7E004A
:102D3100124A1CE49002E1F09002BBF0124DA77F11
:102D4100547ED1124C4BEF9002E2F0A3E4F07F5598
:102D51007ED1124C4B9002E3E02FF09002E2E0347E
:102D610000F0124D09022CC6123AD312367BEF70D5
:102D710003022CC69002ECE06003022CC67838F600
:102D810004F0124D22022CC6E49002BBF090D21244
:102D9100E070087838E67003022CC69002E1E00486
:102DA100F07F017E00124A469002E1E064C870396A
:102DB100F090B8B0E020E51930E61690D217E02087
:102DC100E6279002D9E0440190D800F0124BD98057
:102DD1001890B8B0E030E51130E60E12367BEF7096
:102DE100051218A78003124BB87838E67003022C3D
:102DF100C6E4F69002ECE06003022CC6F604F01281
:052E01004D22022CC669
:1049B0000F1249D90F1249D90F1249D97F369002E7
:1049C000AAE0C313FEEEFD7EC21249D99002AAE00E
:0949D000C313A3E013FD0F7EC226
:0749D9008F828E83EDF022B6
:104C36007FB17EB8124C4B9002E6E4FCFDFE1214E6
:054C4600937FB27EB86F
:074C4B008F828E83E0FF223F
:0D4A0F007D1A7F347EA01249D97F0A7E00F7
:104A1C00EF1FAA0670011E4A6013E4FCFDC3ED945F
:0D4A2C005EEC940150EA0DBD00010C80F01D
:014A3900225A
:101BDC007D107F837ED21249D97D217F347EA01265
:101BEC0049D97F327E00124A1C7DE77F527E9012CB
:101BFC0049D97FB17EB8124C4B9002BE124C40E4D6
:101C0C00FCFDFEC004C005C006C0079002BEE0FC8F
:101C1C00A3E0FDA3E0FEA3E0FF7808121480D0033C
:101C2C00D002D001D000EF2BFFEE3AFEED39FDECE7
:101C3C0038FC9002BE1214937FB37EB8124C4BE466
:101C4C00FCFDFEC004C005C006C0079002BEE0FC4F
:101C5C00A3E0FDA3E0FEA3E0FF7808121480D003FC
:101C6C00D002D001D000EF2BFFEE3AFEED39FDECA7
:101C7C0038FC9002BE1214939002BEE0FCA3E0FD6F
:101C8C00A3E0FEA3E0FFE47B02FAF9F812133F9005
:101C9C0002BE1214937DFF7F527E901249D97D01B2
:101CAC007F347EA01249D97FDB7ED1124C4BEF9052
:101CBC0002C2F0A3E4F07FDC7ED1124C4B9002C345
:101CCC00E02FF09002C2E03400F07FE7124C4BEFB3
:101CDC009002C4F0A3E4F07FE87ED1124C4B90024A
:101CEC00C5E02FF09002C4E03400F07FDF124C4BC3
:101CFC00EF547F9002C8F0A3E4F07FE07ED1124C49
:101D0C004B9002C9E02FF09002C8E03400F07FE164
:101D1C00124C4BEF1DFC7FE27ED1124C4BED2FFD94
:101D2C00E43CFC9002C8E0FEA3E0FFC3ED9FFFEC97
:101D3C009EA3F0A3EFF09002C4E0FEA3E0FFC390DB
:101D4C0002C3E09FFF9002C2E09EFEC3EF9DFFEE38
:101D5C009C9002C6F0A3EFF07FDD7ED1124C4BEFCE
:101D6C009002CCF0A3E4F07FDE7ED1124C4B9002BB
:101D7C00CDE02FF09002CCE03400F07FE9124C4B18
:101D8C00EF9002CEF0A3E4F07FEA7ED1124C4B90A0
:101D9C0002CFE02FF09002CEE03400F07FE6124C40
:101DAC004BA9077FE3124C4BEF7D00FC7FE47ED107
:101DBC00124C4BED2FFDE43CFCC3ED999002D1F09D
:101DCC009002CEA3E0FF9002CCA3E0C39FAE05C36C
:101DDC009E9002D0F07FDF7ED1124C4BEF5480C42A
:101DEC00131313540170047F0180027F00AB077F33
:101DFC00E57ED1124C4BEF5480C413131354017075
:101E0C00047F0180027F00AA079002BEE0FCA3E0E1
:101E1C00FDA3E0FEA3E0FF9002A41214939002C273
:101E2C00E0FFA3E09002A8CFF0A3EFF09002C4E093
:101E3C00FFA3E09002AACFF0A3EFF09002C6E0FF60
:101E4C00A3E09002ACCFF0A3EFF09002C8E0FFA3A8
:101E5C00E09002AECFF0A3EFF09002CAE0FFA3E057
:101E6C009002B0CFF0A3EFF09002CCE0FFA3E09093
:101E7C0002B2CFF0A3EFF09002CEE0FFA3E090020D
:101E8C00B4CFF0A3EFF09002D0E09002B6F0A3E94B
:101E9C00F09002D1E09002B8F0A3EBF0A3EAF07F4F
:011EAC000134
:011EAD002212
:102E0600E4F9FBFD7F507EA01249D97D020F1249DD
:102E1600D90D0F1249D9E4FD0F1249D97DF10F12D0
:102E260049D97F50124C4BEF4402FD7F501249D9CD
:102E36007FC87E00124A1C7F0C7EA0124C4BEF54BA
:102E46000260097F0C124C4BEF5401FB7F507EA0B1
:102E5600124C4BEF54FDFD7F501249D97FEB7ED1CA
:102E6600124C4BEF5406F96003022EFC9002EBE085
:102E7600FC7027EB64017D047F507EA0700D124923
:102E8600D9E4FD7F551249D9022FA11249D9E4FD93
:102E96007F551249D97D03022FA1EC64027026EBFF
:102EA6006401700CFD7F507EA01249D97DF0800B25
:102EB600E4FD7F507EA01249D97DE07F551249D9A5
:102EC600E4FD022FA19002EBE064016003022FA64D
:102ED600EB6401700CFD7F507EA01249D97DFC8009
:102EE6000BE4FD7F507EA01249D97DEC7F55124937
:102EF600D9E4FD022FA1E9640270509002EBE0FBD9
:102F06007A007014FD7F507EA01249D97D037F554B
:102F16001249D97D3C022FA1EB64024A7013FD7F52
:102F2600507EA01249D97D037F551249D9E4FD8010
:102F36006A9002EBE0640170677D047F507EA01208
:102F460049D9E4FD7F551249D98050E9640470508F
:102F56009002EBE0FB7A007011FD7F507EA01249D3
:102F6600D97F551249D97D3C8031EB64024A7012F3
:102F76007D047F507EA01249D9E4FD7F551249D9C0
:102F860080199002EBE064017016FD7F507EA0125E
:102F960049D97D0C7F551249D9E4FD7F571249D98D
:012FA6002208
:104810009002B9E06401601C7F057ED2124C4BEF20
:104820004404FD7F051249D9124C4BEF54F7FD7F2C
:10483000051249D99002BAE06401601C7F057ED25E
:10484000124C4BEF4410FD7F051249D9124C4BEF2F
:0948500054DFFD7F051249D92255
:10489C007D437F357EA01249D97D210F1249D97DE8
:1048AC00040F1249D97D320F1249D97D100F1249CC
:1048BC00D97D430F1249D97D210F1249D97D040F9F
:0F48CC001249D97D320F1249D97D100F0249D9F7
:103D75009002E0E0FB7A00640170047DFF8014EBA3
:103D850064024A70159002E4E0640170047DF580D8
:103D9500027DDD7F437EA01249D97D347F557EB0FB
:103DA5001249D97D9F7F5D1249D97F5F1249D97D1F
:103DB5008F7F611249D97D9F7F631249D97F651233
:103DC50049D97D347F771249D97D9F7F7F1249D9A3
:103DD5007F811249D97D8F7F831249D97D9F7F8548
:103DE5001249D97F871249D99002E4E0704C7D349D
:103DF5007F441249D97D9F7F4C1249D97F4E124984
:103E0500D97D8F7F501249D97D9F7F521249D97F25
:103E1500541249D97D347F661249D97D9F7F6E1230
:103E250049D97F701249D97D8F7F721249D97D9FFB
:0B3E35007F741249D97F761249D92210
:10214E00E49002BEF0A3F0A3F0A3F07BE87A03F9CB
:10215E00F89002A4E0FCA3E0FDA3E0FEA3E0FF12D2
:10216E0013CA9002E5E014601104702E7C007D030A
:10217E001212C29002A1E0FD800EEF25E0FFEE33B9
:10218E00FE9002A1E0FD7C001212D49002E0E0FD70
:10219E007C001212D49002BEEFF09002BEE0240F2B
:1021AE00F0E0C394327480948050037432F07D3822
:1021BE007F3A7EB01249D97D010F1249D99002BEE5
:1021CE00E0FFC394BB74809480501BC3EF94507493
:1021DE0080948040117D107F3E7EB01249D99002CE
:1021EE00BF7401F080799002BEE0FFC394507480FA
:1021FE009480501BC3EF9428748094804011E4FDAA
:10220E007F3E7EB01249D99002BF7402F08050908A
:10221E0002BEE0FFC3942874809480501BC3EF94D9
:10222E00147480948040117D207F3E7EB01249D977
:10223E009002BF7404F080279002BEE0FFC3941496
:10224E00748094805019C3EF940A74809480400F68
:10225E007D307F3E7EB01249D99002BF7408F07D6A
:10226E00107F3F7EB01249D90F1249D99002BFE0BC
:10227E00FF9002BEE08FF0A4AEF07803C333CE33EE
:10228E00CED8F9FF7C007D1B1212D4AD077F417EA4
:10229E00B01249D99002C1E004F07DDF7F0F7E902D
:1022AE001249D97F447EB0124C4BEF54BFFD7F4490
:1022BE001249D97F017E00124A1C7DFF7F0F7E904E
:1022CE001249D97F447EB0124C4BEF4440FD7F44FF
:1022DE001249D97F647E00124A1CE4FD7F1E7EB82F
:1022EE00124A157D017F1E7EB8124A157D037F1E90
:1022FE007EB81249D97F647E00124A1C9002C1E05A
:10230E00C3940374809480500B7FB07EB8124C4BF4
:10231E00EF30E480124A0F7DE77F527E901249D94A
:10232E00124C36E4FCFDFEC004C005C006C007908A
:10233E0002E6E0FCA3E0FDA3E0FEA3E0FF780812B6
:10234E001480D003D002D001D000EF2BFFEE3AFE66
:10235E00ED39FDEC38FC9002E61214937FB37EB893
:10236E00124C4BE4FCFDFEC004C005C006C0079035
:10237E0002E6E0FCA3E0FDA3E0FEA3E0FF78081276
:10238E001480D003D002D001D000EF2BFFEE3AFE26
:10239E00ED39FDEC38FC9002E61214937DFF7F526E
:1023AE007E901249D97D017F347EA01249D9E47FF7
:1023BE0004FE1DFC9002E6E0F8A3E0F9A3E0FAA308
:0A23CE00E0FB12133F9002C0EFF095
:0123D80022E2
:10354900E47BE87A03F9F89002E6E0FCA3E0FDA346
:10355900E0FEA3E0FF1213CAAA07EF75F00A84FE82
:10356900FCEF75F012842402FBEF75F006840490D9
:1035790002BEF0EE2405A3F0EA75F00C8404A3F072
:10358900EA75F01984F9EA75F00584FA7DBE7F0AB7
:103599007E901249D90D1249D97F447EB0124C4B05
:1035A900EF4480FD7F441249D97DC07EA01249D9DC
:1035B9007D807F491249D9E4FDFF7EC21249D90FA6
:1035C9001249D97F561249D97D0F7F201249D97DD9
:1035D900117F251249D97F2C1249D99002C0E0FDEB
:1035E9007F221249D9AD010F1249D9AD020F1249F3
:1035F900D9AD037F2F1249D9AD040F1249D97DAA3C
:103609000F1249D9AD037F521249D9AD040F12499E
:10361900D97DAA0F1249D99002E4E07028AD047F40
:10362900261249D9AD030F1249D97DAA7F2E124915
:10363900D9AD037F321249D9AD040F1249D97DAAF8
:103649007F511249D99002BFE0FD7F287EC21249FD
:10365900D9EC2BFF9002BEE02FFD7F2A1249D97DBC
:10366900107F1B1249D97D507F1D1249D97F2D0228
:0236790049D92D
:101EAE009002AAE0FD7F0C7EC21249D99002ABE0EF
:101EBE00FD0F1249D99002B8E0FF9002B7E02FFD56
:101ECE007F351249D99002B4E0FD7F061249D990B0
:101EDE0002B5E0FD0F1249D97D557F0F1249D990F9
:101EEE0002E0E064016003021FDD9002F0E024F8DE
:101EFE0060712408600302214D9002AAE0FD7F3834
:101F0E007EC21249D99002ABE0FD0F1249D9900260
:101F1E00B7E0FD7F041249D99002B8E0FD0F1249D7
:101F2E00D99002B6E0FD7F081249D97D0A0F1249F9
:101F3E00D90F1249D90F1249D99002E5E0FB7A0068
:101F4E00700B7D267F171249D97D3E807DEB640193
:101F5E004A600302214D7D247F177EC21249D97D2E
:101F6E001C80679002AAE0FD7F387EC21249D9908C
:101F7E0002ABE0FD0F1249D99002B8E0FF9002B714
:101F8E00E02F14FD7F041249D97D010F1249D91D8E
:101F9E007F081249D90D0F1249D90F1249D90F12C4
:101FAE0049D99002E5E0FB7A00700B7D267F17126F
:101FBE0049D97D248014EB64014A600302214D7DD2
:101FCE00247F177EC21249D97D1E7F1202214A90AC
:101FDE0002AAE0FEA3E07802CEC313CE13D8F9EE28
:101FEE00FD7F107EC21249D99002AAE0FEA3E078CE
:101FFE0002CEC313CE13D8F9FD7F117EC21249D97A
:10200E009002F0E024F870030220B5240860030269
:10201E00214D7F381249BE9002B7E0FD7F04124970
:10202E00D99002B8E0FD0F1249D99002B6E0FD7FBB
:10203E00081249D97D0A1249B09002B7E0FD7F57C8
:10204E001249D99002B8E0FD0F1249D99002B6E0BC
:10205E00FD0F1249D97D0A0F1249D90F1249D90F16
:10206E001249D99002E5E0FB7A0070187DA67F1721
:10207E001249D97F4C1249D97D3E7F121249D97F20
:10208E005D02214AEB64014A600302214D7DA47F6B
:10209E00177EC21249D97F4C1249D97D1C7F12126C
:1020AE0049D97F5D02214A9002AAE0C313FEEEFDDC
:1020BE007F381249C79002B8E0FF9002B7E02F14A4
:1020CE00FD7F041249D97D010F1249D91D7F0812D7
:1020DE0049D90D1249B09002B8E0FF9002B7E02F37
:1020EE0014FD7F571249D97D010F1249D91D0F12C8
:1020FE0049D90D0F1249D90F1249D90F1249D9904A
:10210E0002E5E0FB7A0070177DA67F171249D97F92
:10211E004C1249D97D247F121249D97F5D801DEB67
:10212E0064014A701A7DA47F177EC21249D97F4C72
:10213E001249D97D1E7F121249D97F5D1249D922CB
:102634009002BE12149F000000009002D012149F5A
:1026440000000000E49002D4F0A3F0FBFA124A0F59
:10265400124C36E4FCFDFEC004C005C006C0079061
:1026640002E6E0FCA3E0FDA3E0FEA3E0FF7808128D
:102674001480A804A905AA06AB07D007D006D00584
:10268400D004EB2FFFEA3EFEE93DFDE83CFC90025E
:10269400E61214937FB37EB8124C4BE4FCFDFEC0EB
:1026A40004C005C006C0079002E6E0FCA3E0FDA359
:1026B400E0FEA3E0FF7808121480A804A905AA0686
:1026C400AB07D007D006D005D004EB2FFFEA3EFEBF
:1026D400E93DFDE83CFC9002E61214937D017F3451
:1026E4007EA01249D9E47BE87A03F9F89002A4E0C9
:1026F400FCA3E0FDA3E0FEA3E0FF1213CAC0079011
:1027040002E0E0FBE4FAF9F8D0071213CA9002D40D
:10271400EEF0A3EFF0E47BE87A03F9F89002E6E048
:10272400FCA3E0FDA3E0FEA3E0FF1213CAAA06ABDC
:10273400079002E0E0FD7C009002AEE0FEA3E0FF23
:102744001212D49002C2EEF0A3EFF09002E0E0FD8A
:102754007C009002B0E0FEA3E0FF1212D49002C409
:10276400EEF0A3EFF09002E0E0FD7C009002AAE01E
:10277400FEA3E0FF1212D49002C6EEF0A3EFF09095
:1027840002C4E0FEA3E0FF9002C3E02FFF9002C268
:10279400E03EFE9002C7E02FFF9002C6E03EFEE45A
:1027A400FCFD9002C8121493EB2401FFE43AFEE40A
:1027B400FCFD9002C8E0F8A3E0F9A3E0FAA3E0FB73
:1027C40012133F9002CC1214939002D5E024FFFF21
:1027D4009002D4E034FFAB07FAE4F9F89002CCE0BD
:1027E400FCA3E0FDA3E0FEA3E0FF1213CA9002D015
:1027F4001214939002E5E0640170169002C7E0257C
:10280400E0FF9002C6E033FE9002A1E0FD7C008070
:102814001A9002E5E0703C9002C6E0FEA3E0FF7C63
:10282400007D031212C29002A1E0FD1212D4AB0784
:10283400AA069002D0E0FCA3E0FDA3E0FEA3E0C35F
:102844009BFFEE9AFEED9400FDEC9400FC9002BE1A
:102854001214939002BEE0FCA3E0FDA3E0FEA3E00B
:07286400FF9002DC02149357
:1033FF00E4FD7F1C7EC21249D99002A1E014700334
:10340F000234AE1460681460341460030234E19027
:10341F0002F0E0FF9002A2E04FFD7F017EC2124951
:10342F00D99002F0E0FF9002A2E04FFD7F561249C3
:10343F00D97D017F021249D97D550234DD9002A258
:10344F00E04430FF9002F0E04FFD7F017EC2124951
:10345F00D99002A2E04430FF9002F0E04FFD7F567A
:10346F001249D97D017F021249D97D908060900267
:10347F00A2E04420FF9002F0E04FFD7F017EC212D8
:10348F0049D99002A2E04420FF9002F0E04FFD7F67
:10349F00561249D97D027F021249D97D58802F904B
:1034AF0002A2E04410FF9002F0E04FFD7F017EC2C8
:1034BF001249D99002A2E04410FF9002F0E04FFDB4
:1034CF007F561249D97D037F021249D9E4FD0F12AD
:1034DF0049D97F147E00124A1C9002A3E0FD7F00A1
:1034EF007EC21249D99002F0E0701B7F14124C4B30
:1034FF00EF4480FD7F141249D97F00124C4BEF44EB
:10350F0080FD7F008030E4FB7A01F9F89002DCE067
:10351F00FCA3E0FDA3E0FEA3E0FF1213CAAD077FFB
:10352F00027EC21249D99002DCE0FCA3A3A3E0FF04
:0A353F00AD077F037EC21249D922B6
:104A8E00121BDC12489C123D7512214E12354990B4
:104A9E0002F0E0700512001E8003122634122E065C
:094AAE00124810121EAE0233FF83
:1023D9000501000511000510000529001536001535
:1023E9003A0015E00015E19315E26515E3F815804B
:1023F9000315E001150300150430150C74151700B9
:102409001518D7151901151A00151BD7151C011513
:1024190024FE153719153528153805153908153AC3
:1024290012153C7E153DFF153EFF153F7F154006F1
:102439001541A015431E15440B15550215576A156C
:10244900590A155A2E155B1A155C15155D7F155E0F
:1024590056155F4515603715613415622715632BCD
:1024690015641615653015662F15672F15684E15F5
:10247900693D156A45156B36156C32156D24156E57
:1024890013156F0215707F1571561572451573373F
:1024990015743415752715762B157716157830159B
:1024A900792F157A2F157B4E157C3D157D45157EA7
:1024B90036157F3215802415811315820215E00225
:1024C90015005215015F15025F15035015047715A4
:1024D900055715065F15074E15084C15095F150AAE
:1024E9004A150B48150C5F150D46150E44150F407E
:1024F90015105F15115F15125F15135F15145F1520
:10250900155F15165315175F15185F151951151A0B
:1025190077151B57151C5F151D4F151E4D151F5F90
:1025290015204B15214915225F15234715244515FB
:10253900254115265F15275F15285F15295F152A7F
:102549005F152B5F152C13152D1F152E1F152F0128
:1025590015301715311715321F15330D15340F1591
:10256900351F15360515370715381F153909153A59
:102579000B153B11153C1F153D1F153E1F153F1F20
:1025890015401F15411F15421215431F15441F15EC
:10259900450015461715471715481F15490C154AC3
:1025A9000E154B1F154C04154D06154E1F154F08DA
:1025B90015500A15511015521F15531F15541F1583
:1025C900551F15561F15571F155840155B10155CDB
:1025D90006155D40155E00155F0015604015610325
:1025E90015620415636C15646C1565751566081517
:1025F90067B415680815696C156A6C156B0C156D4F
:1026090000156E00156F881575BB157600157705D1
:1026190015782A15E00415000E1502B31509611580
:0B2629000E4815E00015350015E0001C
:0739D600E493FF7BFF7D027B
:1039DD009002BEEFF0A3EDF0A3EBF0A3EAF0A3E9A4
:0139ED00F0E9
:1039EE00E4A3F07D407F1C7EC21249D99002BFE055
:1039FE006402704F7D0C7F187EC21249D97D047F00
:103A0E00197EC21249D99002BEE0FD7F347EC212E9
:103A1E0049D99002C0E0FBA3E0FAA3E0F9121248E4
:103A2E00FD7F347EC21249D99002C0E0FBA3E0FABA
:103A3E00A3E0F9900001121261FD7F347EC212499B
:103A4E00D980727D0E7F187EC21249D99002BFE0D6
:103A5E002406FD7F197EC21249D99002BEE0FD7F79
:103A6E00347EC21249D99002BFE0FD7F347EC2126D
:103A7E0049D9E4FD7F347EC21249D9E49002C3F0E5
:103A8E009002BFE0FF9002C3E0C39F50289002C097
:103A9E00E0FBA3E0FAA3E0F9121248FD7F347EC2E8
:103AAE001249D99002C1E475F0011213299002C394
:103ABE00E004F080CB7F017E00124A1CE4FD7F18EB
:053ACE007EC20249D98F
:0B422D009002F1EFF0A3EDF0A3EBF026
:10423800E49002F5F07D407F1C7EC21249D97D0EC4
:104248007F187EC21249D97D0A7F197EC21249D9C8
:104258007D397F347EC21249D97D047F347EC212F3
:1042680049D9E4FD7F347EC21249D99002F1E0FDBC
:104278007F347EC21249D99002F2E0FD7F347EC2BB
:104288001249D99002F3E0FD7F347EC21249D990D9
:1042980002F4E0FD7F347EC21249D97F017E00120C
:0B42A8004A1CE4FD7F187EC20249D9C9
:1045D6009002FBEFF0A3EDF07D407F1C7EC21249F6
:1045E600D97D0C7F187EC21249D97D047F197EC2FF
:1045F6001249D97D157F347EC21249D99002FBE05B
:10460600FD7F347EC21249D99002FCE0FD7F347EE4
:10461600C21249D97F017E00124A1CE4FD7F187E32
:0B462600C21249D97F0A7E00024A1C24
:104689009002FDEFF07D407F1C7EC21249D97D0C5E
:104699007F187EC21249D97D047F197EC21249D979
:1046A9007D057F347EC21249D99002FDE0FD7F3439
:1046B9007EC21249D9E4FD7F347EC21249D97F01F5
:1046C9007E00124A1CE4FD7F187EC21249D97F0A76
:0546D9007E00024A1CF6
:10001E009023EB7A2379EC1239D69023EE7A23795A
:10002E00EF1239D69023F1E493FF7BFF7A2379F216
:10003E007D021239DD9023F4E493FF7BFF7A23795E
:10004E00F57D021239DD9023F7E493FF7BFF7A23CF
:10005E0079F87D021239DD9023FAE493FF7BFF7A63
:10006E002379FB7D021239DD9023FDE493FF7BFFA4
:10007E007A2379FE7D021239DD902400E493FF7B12
:10008E00FF7A2479017D021239DD902403E493FF77
:10009E007BFF7A2479047D021239DD902406E493E5
:1000AE00FF7BFF7A2479077D021239DD902409E463
:1000BE0093FF7BFF7A24790A7D021239DD90240C9E
:1000CE00E493FF7BFF7A24790D7D021239DD9024B3
:1000DE000FE493FF7BFF7A2479107D021239DD90B5
:1000EE002412E493FF7BFF7A2479137D021239DD0B
:1000FE00902415E493FF7BFF7A2479167D02123942
:10010E00DD902418E493FF7BFF7A2479197D021287
:10011E0039DD90241BE493FF7BFF7A24791C7D024A
:10012E001239DD90241EE493FF7BFF7A24791F7D24
:10013E00021239DD902421E493FF7BFF7A24792289
:10014E007D021239DD902424E493FF7BFF7A24791B
:10015E00257D021239DD902427E493FF7BFF7A245C
:10016E0079287D021239DD90242AE493FF7BFF7AF1
:10017E0024792B7D021239DD90242DE493FF7BFF31
:10018E007A24792E7D021239DD902430E493FF7BA0
:10019E00FF7A2479317D021239DD902433E493FF06
:1001AE007BFF7A2479347D021239DD902436E49374
:1001BE00FF7BFF7A2479377D021239DD902439E4F2
:1001CE0093FF7BFF7A24793A7D021239DD90243C2D
:1001DE00E493FF7BFF7A24793D7D021239DD902472
:1001EE003FE493FF7BFF7A2479407D021239DD9044
:1001FE002442E493FF7BFF7A2479437D021239DD9A
:10020E00902445E493FF7BFF7A2479467D021239D0
:10021E00DD902448E493FF7BFF7A2479497D021216
:10022E0039DD90244BE493FF7BFF7A24794C7D02D9
:10023E001239DD90244EE493FF7BFF7A24794F7DB3
:10024E00021239DD902451E493FF7BFF7A24795218
:10025E007D021239DD902454E493FF7BFF7A2479DA
:10026E00557D021239DD902457E493FF7BFF7A24EB
:10027E0079587D021239DD90245AE493FF7BFF7A80
:10028E0024795B7D021239DD90245DE493FF7BFFC0
:10029E007A24795E7D021239DD902460E493FF7B2F
:1002AE00FF7A2479617D021239DD902463E493FF95
:1002BE007BFF7A2479647D021239DD902466E49303
:1002CE00FF7BFF7A2479677D021239DD902469E481
:1002DE0093FF7BFF7A24796A7D021239DD90246CBC
:1002EE00E493FF7BFF7A24796D7D021239DD902431
:1002FE006FE493FF7BFF7A2479707D021239DD90D3
:10030E002472E493FF7BFF7A2479737D021239DD28
:10031E00902475E493FF7BFF7A2479767D0212395F
:10032E00DD902478E493FF7BFF7A2479797D0212A5
:10033E0039DD90247BE493FF7BFF7A24797C7D0268
:10034E001239DD90247EE493FF7BFF7A24797F7D42
:10035E00021239DD902481E493FF7BFF7A247982A7
:10036E007D021239DD902484E493FF7BFF7A247999
:10037E00857D021239DD902487E493FF7BFF7A247A
:10038E0079887D021239DD90248AE493FF7BFF7A0F
:10039E0024798B7D021239DD90248DE493FF7BFF4F
:1003AE007A24798E7D021239DD902490E493FF7BBE
:1003BE00FF7A2479917D021239DD902493E493FF24
:1003CE007BFF7A2479947D021239DD902496E49392
:1003DE00FF7BFF7A2479977D021239DD902499E410
:1003EE0093FF7BFF7A24799A7D021239DD90249C4B
:1003FE00E493FF7BFF7A24799D7D021239DD9024F0
:10040E009FE493FF7BFF7A2479A07D021239DD9061
:10041E0024A2E493FF7BFF7A2479A37D021239DDB7
:10042E009024A5E493FF7BFF7A2479A67D021239EE
:10043E00DD9024A8E493FF7BFF7A2479A97D021234
:10044E0039DD9024ABE493FF7BFF7A2479AC7D02F7
:10045E001239DD9024AEE493FF7BFF7A2479AF7DD1
:10046E00021239DD9024B1E493FF7BFF7A2479B236
:10047E007D021239DD9024B4E493FF7BFF7A247958
:10048E00B57D021239DD9024B7E493FF7BFF7A2409
:10049E0079B87D021239DD9024BAE493FF7BFF7A9E
:1004AE002479BB7D021239DD9024BDE493FF7BFFDE
:1004BE007A2479BE7D021239DD9024C0E493FF7B4D
:1004CE00FF7A2479C17D021239DD9024C3E493FFB3
:1004DE007BFF7A2479C47D021239DD9024C6E49321
:1004EE00FF7BFF7A2479C77D021239DD9024C9E49F
:1004FE0093FF7BFF7A2479CA7D021239DD9024CCDA
:10050E00E493FF7BFF7A2479CD7D021239DD9024AE
:10051E00CFE493FF7BFF7A2479D07D021239DD90F0
:10052E0024D2E493FF7BFF7A2479D37D021239DD46
:10053E009024D5E493FF7BFF7A2479D67D0212397D
:10054E00DD9024D8E493FF7BFF7A2479D97D0212C3
:10055E0039DD9024DBE493FF7BFF7A2479DC7D0286
:10056E001239DD9024DEE493FF7BFF7A2479DF7D60
:10057E00021239DD9024E1E493FF7BFF7A2479E2C5
:10058E007D021239DD9024E4E493FF7BFF7A247917
:10059E00E57D021239DD9024E7E493FF7BFF7A2498
:1005AE0079E87D021239DD9024EAE493FF7BFF7A2D
:1005BE002479EB7D021239DD9024EDE493FF7BFF6D
:1005CE007A2479EE7D021239DD9024F0E493FF7BDC
:1005DE00FF7A2479F17D021239DD9024F3E493FF42
:1005EE007BFF7A2479F47D021239DD9024F6E493B0
:1005FE00FF7BFF7A2479F77D021239DD9024F9E42E
:10060E0093FF7BFF7A2479FA7D021239DD9024FC68
:10061E00E493FF7BFF7A2479FD7D021239DD90246D
:10062E00FFE493FF7BFF7A2579007D021239DD907E
:10063E002502E493FF7BFF7A2579037D021239DDD3
:10064E00902505E493FF7BFF7A2579067D0212390A
:10065E00DD902508E493FF7BFF7A2579097D021250
:10066E0039DD90250BE493FF7BFF7A25790C7D0213
:10067E001239DD90250EE493FF7BFF7A25790F7DED
:10068E00021239DD902511E493FF7BFF7A25791252
:10069E007D021239DD902514E493FF7BFF7A2579D4
:1006AE00157D021239DD902517E493FF7BFF7A2525
:1006BE0079187D021239DD90251AE493FF7BFF7ABB
:1006CE0025791B7D021239DD90251DE493FF7BFFFA
:1006DE007A25791E7D021239DD902520E493FF7B69
:1006EE00FF7A2579217D021239DD902523E493FFCF
:1006FE007BFF7A2579247D021239DD902526E4933D
:10070E00FF7BFF7A2579277D021239DD902529E4BA
:10071E0093FF7BFF7A25792A7D021239DD90252CF5
:10072E00E493FF7BFF7A25792D7D021239DD90252A
:10073E002FE493FF7BFF7A2579307D021239DD900D
:10074E002532E493FF7BFF7A2579337D021239DD62
:10075E00902535E493FF7BFF7A2579367D02123999
:10076E00DD902538E493FF7BFF7A2579397D0212DF
:10077E0039DD90253BE493FF7BFF7A25793C7D02A2
:10078E001239DD90253EE493FF7BFF7A25793F7D7C
:10079E00021239DD902541E493FF7BFF7A257942E1
:1007AE007D021239DD902544E493FF7BFF7A257993
:1007BE00457D021239DD902547E493FF7BFF7A25B4
:1007CE0079487D021239DD90254AE493FF7BFF7A4A
:1007DE0025794B7D021239DD90254DE493FF7BFF89
:1007EE007A25794E7D021239DD902550E493FF7BF8
:1007FE00FF7A2579517D021239DD902553E493FF5E
:10080E007BFF7A2579547D021239DD902556E493CB
:10081E00FF7BFF7A2579577D021239DD902559E449
:10082E0093FF7BFF7A25795A7D021239DD90255C84
:10083E00E493FF7BFF7A25795D7D021239DD9025E9
:10084E005FE493FF7BFF7A2579607D021239DD909C
:10085E002562E493FF7BFF7A2579637D021239DDF1
:10086E00902565E493FF7BFF7A2579667D02123928
:10087E00DD902568E493FF7BFF7A2579697D02126E
:10088E0039DD90256BE493FF7BFF7A25796C7D0231
:10089E001239DD90256EE493FF7BFF7A25796F7D0B
:1008AE00021239DD902571E493FF7BFF7A25797270
:1008BE007D021239DD902574E493FF7BFF7A257952
:1008CE00757D021239DD902577E493FF7BFF7A2543
:1008DE0079787D021239DD90257AE493FF7BFF7AD9
:1008EE0025797B7D021239DD90257DE493FF7BFF18
:1008FE007A25797E7D021239DD902580E493FF7B87
:10090E00FF7A2579817D021239DD902583E493FFEC
:10091E007BFF7A2579847D021239DD902586E4935A
:10092E00FF7BFF7A2579877D021239DD902589E4D8
:10093E0093FF7BFF7A25798A7D021239DD90258C13
:10094E00E493FF7BFF7A25798D7D021239DD9025A8
:10095E008FE493FF7BFF7A2579907D021239DD902B
:10096E002592E493FF7BFF7A2579937D021239DD80
:10097E00902595E493FF7BFF7A2579967D021239B7
:10098E00DD902598E493FF7BFF7A2579997D0212FD
:10099E0039DD90259BE493FF7BFF7A25799C7D02C0
:1009AE001239DD90259EE493FF7BFF7A25799F7D9A
:1009BE00021239DD9025A1E493FF7BFF7A2579A2FF
:1009CE007D021239DD9025A4E493FF7BFF7A257911
:1009DE00A57D021239DD9025A7E493FF7BFF7A25D2
:1009EE0079A87D021239DD9025AAE493FF7BFF7A68
:1009FE002579AB7D021239DD9025ADE493FF7BFFA7
:100A0E007A2579AE7D021239DD9025B0E493FF7B15
:100A1E00FF7A2579B17D021239DD9025B3E493FF7B
:100A2E007BFF7A2579B47D021239DD9025B6E493E9
:100A3E00FF7BFF7A2579B77D021239DD9025B9E467
:100A4E0093FF7BFF7A2579BA7D021239DD9025BCA2
:100A5E00E493FF7BFF7A2579BD7D021239DD902567
:100A6E00BFE493FF7BFF7A2579C07D021239DD90BA
:100A7E0025C2E493FF7BFF7A2579C37D021239DD0F
:100A8E009025C5E493FF7BFF7A2579C67D02123946
:100A9E00DD9025C8E493FF7BFF7A2579C97D02128C
:100AAE0039DD9025CBE493FF7BFF7A2579CC7D024F
:100ABE001239DD9025CEE493FF7BFF7A2579CF7D29
:100ACE00021239DD9025D1E493FF7BFF7A2579D28E
:100ADE007D021239DD9025D4E493FF7BFF7A2579D0
:100AEE00D57D021239DD9025D7E493FF7BFF7A2561
:100AFE0079D87D021239DD9025DAE493FF7BFF7AF7
:100B0E002579DB7D021239DD9025DDE493FF7BFF35
:100B1E007A2579DE7D021239DD9025E0E493FF7BA4
:100B2E00FF7A2579E17D021239DD9025E3E493FF0A
:100B3E007BFF7A2579E47D021239DD9025E6E49378
:100B4E00FF7BFF7A2579E77D021239DD9025E9E4F6
:100B5E0093FF7BFF7A2579EA7D021239DD9025EC31
:100B6E00E493FF7BFF7A2579ED7D021239DD902526
:100B7E00EFE493FF7BFF7A2579F07D021239DD9049
:100B8E0025F2E493FF7BFF7A2579F37D021239DD9E
:100B9E009025F5E493FF7BFF7A2579F67D021239D5
:100BAE00DD9025F8E493FF7BFF7A2579F97D02121B
:100BBE0039DD9025FBE493FF7BFF7A2579FC7D02DE
:100BCE001239DD9025FEE493FF7BFF7A2579FF7DB8
:100BDE00021239DD902601E493FF7BFF7A2679021B
:100BEE007D021239DD902604E493FF7BFF7A26798D
:100BFE00057D021239DD902607E493FF7BFF7A26EE
:100C0E0079087D021239DD90260AE493FF7BFF7A84
:100C1E0026790B7D021239DD90260DE493FF7BFFC2
:100C2E007A26790E7D021239DD902610E493FF7B31
:100C3E00FF7A2679117D021239DD902613E493FF97
:100C4E007BFF7A2679147D021239DD902616E49305
:100C5E00FF7BFF7A2679177D021239DD902619E483
:100C6E0093FF7BFF7A26791A7D021239DD90261CBE
:100C7E00E493FF7BFF7A26791D7D021239DD9026E3
:100C8E001FE493FF7BFF7A2679207D021239DD90D7
:100C9E002622E493FF7BFF7A2679237D021239DD2B
:100CAE00902625E493FF7BFF7A2679267D02123962
:100CBE00DD902628E493FF7BFF7A2679297D0212A8
:100CCE0039DD90262BE493FF7BFF7A26792C7D026B
:100CDE001239DD9023DCE493FF7BFF7A2379DD7DEF
:100CEE00021239DD7F787E00124A1C9023E2E493D3
:100CFE00FF7BFF7A2379E37D021239DD7F057E00CB
:100D0E00124A1C90262EE493FF7BFF7A26792F7DC4
:100D1E00021239DD902631E493FF7BFF7A26793279
:050D2E007D020239DD29
:103CA2000A206C616E65636E745858203D2025624F
:103CB200640A000001000000000000000100010091
:103CC20000000100010002000000020001000300E8
:103CD20000000300020007000000070002000B00C2
:103CE20000000B0002000F0000000F0004001F0084
:103CF20000001FFFFF0000000000000000000000A5
:103D020000000000000000000000000000000000B1
:103D1200000000FFFF0000000000000000000000A3
:103D22000000000000000000000000000000000091
:103D3200000000FFFF000000000000000000000083
:103D42000000000000000000000000000000000071
:103D5200000000FFFF000000000000000000000063
:103D62000000000000000000000000000000000051
:033D72000000004E
:1029A90060640194000000000000000000000000C5
:1029B900000000000000000000000000000000000E
:1029C90000000000000000000000000000000000FE
:1029D90000000000000000000000000000000000EE
:1029E90000000000000000000000000000000000DE
:1029F90000000000000000000000000000000000CE
:0D2A090000000000000000004202058408EB
:0B4DD40090D850EFF090D853EDF02283
:104C190090D8557480F0E490D852F090D85104F0AF
:0C4C2900EF90D850F090D854E0540FFFEA
:014C3500225C
:0C4A3A00F090D80374F0F0E4F07F64FE0C
:104A4600EF1FAA0670011E4A6013E4FCFDC3ED9435
:0D4A560045EC940150EA0DBD00010C80F00C
:014A63002230
:054DF80090D012E0FF65
:014DFD002293
:054DFE0090D854E0FF15
:014E0300228C
:104BB80090900374EFF090900D74E0F090900F7463
:104BC800BFF090900D74FFF090900FF0909003F06C
:014BD80022BA
:104B0500E4FF7849E6FEEFC39E50157839E62F2479
:104B150000F582E43400F583E090D011F00F80E2D7
:054B25007839EE26F6D0
:014B2A002268
:104B5000E4FF7849E6FEEFC39E50157839E62F242E
:104B600000F582E43400F583E090D011F00F80E28C
:044B7000E47839F6B6
:014B7400221E
:0C4DC80090D0117420F0E490D013F02281
:064E0400E490D011F02241
:104D3B00E4FEEEC39F500C74242EF8E690D011F0D5
:084D4B000E80EFE490D013F09C
:014D5300223D
:06439500E6540F793AF72F
:10439B00783AE6FF6401703B784DE66F603590022A
:1043AB00D9E0441190D800F0E4FD7F03124DD40FF7
:1043BB00124DD40F124DD40F124DD490D819740145
:1043CB00F090D81FF0783AE6784DF6124BB8900281
:1043DB00D8E022783AE6FF64026004EFB4030E786B
:0E43EB003AE6FF784D666005A607124BB82231
:103E400074242FF8E6540F7837F664016007783A47
:103E5000E6640160147837E6FF6407600F783AE69D
:103E6000FE64026004EEB40303024BB8EF64076023
:103E700003023F06783AE6FF64026008EF640360DD
:103E800003023F0690D2127401F090D214F078230E
:103E9000E6701A760190B83A7440F090B83B7450CE
:103EA000F090B83A7480F090B83B7452F0124BB86E
:103EB00090DBC6E090D85AF090DBC7E090D85BF07A
:103EC00090DBC9E090D85CF090DBCAE090D85DF060
:103ED00090DBCBE090D85EF090DBCDE090D85FF047
:103EE0009002D9E0440190D800F090900574EFF072
:103EF00074FFF090900774F7F090900D74DFF074F9
:073F0000FFF0909007F02292
:053FBF009002D7EFF0B5
:103FC400E4FE90D8557480F0E490D852F090D85123
:103FD400F090D850F07844E690D852F008E690D8A3
:103FE40051F008E690D850F09002D7E0FDEEC39D62
:103FF4005012124DFE74242EF8A60790D850E004F7
:10400400F00E80E47844E6FC701308E6B4020E086F
:10401400E6700AEDD3940240567F028010EC7010D3
:104024007845E6B4020A08E6B40205E4FF023E401D
:104034007845E6FF64226025EFB43002801F78449F
:10404400E6B4060608E6700280137844E6B4060770
:1040540008E6B4920280067844E6B40F129002D7C0
:0F406400E0FF7E007D007B007A0079241214D0EB
:01407300222A
:02313C00AE07DC
:10313E00E4FF9002D7F090D8557480F07844E69072
:10314E00D852F008E690D851F008E690D850F0EF3B
:10315E00C39E5012744E2FF8E690D853F090D8506C
:10316E00E004F00F80E97844E6FC704408E6640160
:10317E00703E08E6703A784EE6783BF67835760182
:10318E00E490D212F07838F67847F6EED3940140F8
:10319E000B784FE6FF783CF6540F08F6EED3940208
:1031AE0050030232AB7850E6540F793AF702439B44
:1031BE00EC703A7845E66401703308E66401702DD0
:1031CE00784EE6FF783CF6540F08F6EED3940140A5
:1031DE0005784F124395EEC3940350030232AB7839
:1031EE0050E65403640260030232AB80467844E634
:1031FE00702808E66401702208E66402701C784E9E
:10320E00124395EEC3940250030232AB784FE6544C
:10321E0003640260030232AB80197844E6FF701C2F
:10322E0008E6B4011708E6B40312784EE6540364B8
:10323E0002706A90D819F090D81FF022EF703E7885
:10324E0045E66401703708E664077031782376012D
:10325E00784EE690B83A30E402800C7440F090B8A4
:10326E003B7450F090B83A7480F090B83B7452F0C2
:10327E00EED394014027784FE6702280147844E60E
:10328E00701B08E6B4011608E6B40811784EE67015
:0D329E000C90D8507408F090D8537401F0D3
:0132AB002200
:074DEA0090B02E7420F022AE
:1046310090B02C7471F090B8167450F0E490B021E1
:10464100F090B02274C1F090B0287419F090900FDE
:10465100747FF074FFF07F0F7E00124A4690B81409
:104661007440F07F0F7E00124A4674C0F07F0F7EC7
:1046710000124A4674E0F07F0A7E00124A4674E452
:08468100F090B82174E0F02272
:1049490090B83A7480F090B83B7452F0E490B01F7C
:10495900F090B020F090900D74E1F090900374FE07
:10496900F0741FF090900F74BFF074FFF090900DE9
:06497900F0909003F02213
:1048DB0090A03274E4F0E490D000F090D002741009
:1048EB00F090D008740BF090D0097466F090D00A59
:1048FB00740EF090D00B7471F0E490A030F09090A7
:08490B001074EFF074FFF022BC
:104A640090DAFC740FF090DAA374E4F090DAA47492
:104A740080F090B0307440F09002D9E0441190D8A6
:0A4A840000F0E47843F67823F622F0
:104BFA0090B03A74F8F090B092741FF090B01474B8
:0F4C0A0038F090B0187410F090B01A740AF022BD
:104C520090900774F7F074FFF090D2697405F090A9
:0C4C6200D2027454F090D2677420F0224B
:10457A00E490B000F090B08CE04407F090B08E74F4
:10458A0007F090B08F7477F090D1107420F090D12A
:10459A00147419F090D11574C2F07D7F7F067E9055
:1045AA001249D97F017E00124A1C7DFF7F067E9048
:1045BA001249D97DEE7F057E901249D97F017E008E
:0C45CA00124A1C7DFE7F057E900249D93C
:10367B007F01124C199002C6EF124A3A7F117EDB82
:10368B00124C4BEF547F9002BEF0A3E4F07F107E00
:10369B00DB124C4B9002BFE02FF09002BEE03400E7
:1036AB00F07F137EDB124C4BEF547F9002C0F0A3E4
:1036BB00E4F07F127EDB124C4B9002C1E02FF090B6
:1036CB0002C0E03400F07F157EDB124C4BEF547FD1
:1036DB009002C2F0A3E4F07F147EDB124C4B9002FD
:1036EB00C3E02FF09002C2E03400F07F177EDB12B4
:1036FB004C4BEF547F9002C4F0A3E4F07F167EDBBB
:10370B00124C4B9002C5E02FF09002C4E03400F055
:10371B009002C6E024FE601D24FE603D2403707BF6
:10372B00C39002BFE0940A9002BEE0940040037F76
:10373B0001227F0022C39002BFE0940A9002BEE0F8
:10374B009400500FC39002C1E0940A9002C0E09421
:10375B000040037F01227F0022C39002BFE0940A46
:10376B009002BEE09400502DC39002C1E0940A90E9
:10377B0002C0E09400501EC39002C3E0940A900272
:10378B00C2E09400500FC39002C5E0940A9002C4AB
:0D379B00E0940040037F01227F00227F01A7
:0137A80022FE
:100D330074FF900100F0A3F0A3F0A3F0A3F0A3F0DD
:100D4300A3F0A3F078087C017D01FB7A3C79F57E62
:100D5300007F2012122278287C017D017BFF7A3DDF
:100D630079157E007F2012122278487C017D017B59
:100D7300FF7A3D79357E007F2012122278687C014C
:100D83007D017BFF7A3D79557E007F20121222E49C
:100D9300900188F07F01124C19EF540F900191F0EC
:100DA30090D214F09002D9E0440190D800F07BFF78
:100DB3007A3C79A290D214E0900273F01215ADE45C
:100DC30090018DF0A3F0A3F0A3F0900188F09001BF
:100DD30088E0FF25E025E024B5F582E4343CF58383
:100DE300E474019375F011A4FE90D85AF0EF25E056
:100DF30025E024B7F582E4343CF583740193FF9036
:100E0300D85BF090D85CF090D85DEEF090D85EEFB0
:100E1300F090D85F124A3A900191E0C39401407C6C
:100E23007F117EDB124C4BEF547FFE900188E0254F
:100E3300E02408F582E43401F583EEF0A3E4F07FC7
:100E4300107EDB124C4B900188E0FD25E02408F571
:100E530082E43401F583E48FF0121329ED25E024B5
:100E630008F582E43401F583E0FEA3E0FF9001007E
:100E7300E0FCA3E0FDD3EF9DEE9C5020900188E0C1
:100E8300FD900100EEF0A3EFF0900189EDF09001E9
:100E93008DE07008900188E090018DF0900191E061
:100EA300C39402407C7F137EDB124C4BEF547FFED6
:100EB300900188E025E02428F582E43401F583EEEF
:100EC300F0A3E4F07F127EDB124C4B900188E0FD2F
:100ED30025E02428F582E43401F583E48FF012132E
:100EE30029ED25E02428F582E43401F583E0FEA30F
:100EF300E0FF900102E0FCA3E0FDD3EF9DEE9C50E8
:100F030020900188E0FD900102EEF0A3EFF0900144
:100F13008AEDF090018EE07008900188E090018ED8
:100F2300F0900191E0C3940450030210287F157ED2
:100F3300DB124C4BEF547FFE900188E025E0244800
:100F4300F582E43401F583EEF0A3E4F07F147EDB55
:100F5300124C4B900188E0FD25E02448F582E434EF
:100F630001F583E48FF0121329ED25E02448F5827F
:100F7300E43401F583E0FEA3E0FF900104E0FCA369
:100F8300E0FDD3EF9DEE9C5020900188E0FD9001A1
:100F930004EEF0A3EFF090018BEDF090018FE07081
:100FA30008900188E090018FF07F177EDB124C4B95
:100FB300EF547FFE900188E025E02468F582E43455
:100FC30001F583EEF0A3E4F07F167EDB124C4B9029
:100FD3000188E0FD25E02468F582E43401F583E42B
:100FE3008FF0121329ED25E02468F582E43401F52E
:100FF30083E0FEA3E0FF900106E0FCA3E0FDD3EF56
:101003009DEE9C5020900188E0FD900106EEF0A338
:10101300EFF090018CEDF0900190E0700890018862
:10102300E0900190F0900188E004F0E0C394105048
:1010330003020DD190018DE0FDFF900189E0C39F74
:10104300FFE49400C313EF13FFED2FF090018EE044
:10105300FDFF90018AE0C39FFFE49400C313EF13E5
:10106300FFED2FF090018FE0FDFF90018BE0C39F18
:10107300FFE49400C313EF13FFED2FF0900190E012
:10108300FDFF90018CE0C39FFFE49400C313EF13B3
:10109300FFED2FF090018AE0F925E025E024B5F576
:1010A30082E4343CF583740193C454F0FE900189C7
:1010B300E0FD25E025E024B5F582E4343CF58374B6
:1010C30001932E90D85AF0ED25E025E024B7F58260
:1010D300E4343CF58374019390D85BF0E925E02573
:1010E300E024B7F582E4343CF58374019390D85C33
:1010F300F090018CE0F925E025E024B5F582E43495
:101103003CF583740193C454F0FE90018BE0FD25FC
:10111300E025E024B5F582E4343CF5837401932E95
:1011230090D85DF0ED25E025E024B7F582E4343C6A
:10113300F58374019390D85EF0E925E025E024B7A8
:0E114300F582E4343CF58374019390D85FF09C
:01115100227B
:104BD90090900774F7F090900D74DFF07F057E00D8
:104BE900124A4674FFF0909007F07FF47E01024A62
:014BF9004675
:1018A7009002CF74F0F0E4A3F07F01124C19EF54CB
:1018B7000F9002CEF090D1CCE0FFE4FCFDFE781053
:1018C7001214809002BE12149390D1CDE0FFE4FC75
:1018D700FDFE9002BEE0F8A3E0F9A3E0FAA3E02F33
:1018E700FFEE3AFEED39FDEC38FC780812148090D3
:1018F70002BE12149390D1CEE0FB9002CFE0FFE43A
:10190700FCFDFEEB5FFF9002BEE0F8A3E0F9A3E069
:10191700FAA3E02FFFEE3AFEED39FDEC38FC90021A
:10192700BE12149390D1CFE0FFE4FCFDFE781012B5
:1019370014809002C212149390D1D0E0FFE4FCFD12
:10194700FE9002C2E0F8A3E0F9A3E0FAA3E02FFFBC
:10195700EE3AFEED39FDEC38FC780812148090025F
:10196700C212149390D1D1E0FB9002CFE0FFE4FCC8
:10197700FDFEEB5FFF9002C2E0F8A3E0F9A3E0FAF7
:10198700A3E02FFFEE3AFEED39FDEC38FC9002C2E2
:1019970012149390D1D2E0FFE4FCFDFE78101214EC
:1019A700809002C612149390D1D3E0FFE4FCFDFEB1
:1019B7009002C6E0F8A3E0F9A3E0FAA3E02FFFEE58
:1019C7003AFEED39FDEC38FC78081214809002C617
:1019D70012149390D1D4E0FB9002CFE0FFE4FCFD1A
:1019E700FEEB5FFF9002C6E0F8A3E0F9A3E0FAA3DD
:1019F700E02FFFEE3AFEED39FDEC38FC9002C612FF
:101A0700149390D1D5E0FFE4FCFDFE78101214800A
:101A17009002CA12149390D1D6E0FFE4FCFDFE9029
:101A270002CAE0F8A3E0F9A3E0FAA3E02FFFEE3A39
:101A3700FEED39FDEC38FC78081214809002CA12CA
:101A4700149390D1D7E0FB9002CFE0FFE4FCFDFEBA
:101A5700EB5FFF9002CAE0F8A3E0F9A3E0FAA3E086
:101A67002FFFEE3AFEED39FDEC38FC9002CA121456
:101A7700939002CEE0B402289002C2E0FCA3E0FDFE
:101A8700A3E0FEA3E0FF9002BEE0F8A3E0F9A3E025
:101A9700FAA3E0FBC312145C7003021B7B021B75E5
:101AA7009002CEE064046003021B7B9002C2E0FC5C
:101AB700A3E0FDA3E0FEA3E0FF9002BEE0F8A3E0F1
:101AC700F9A3E0FAA3E0FBC312145C6003021B75E1
:101AD7009002C6E0FCA3E0FDA3E0FEA3E0FF9002B6
:101AE700BEE0F8A3A3A3E0C312145C6003021B7556
:101AF7009002CAE0FCA3E0FDA3E0FEA3E0FF900292
:101B0700BEE0F8A3A3A3E0C312145C70619002C601
:101B1700E0FCA3E0FDA3E0FEA3E0FF9002C2E0F833
:101B2700A3E0F9A3E0FAA3E0FBC312145C703F90B3
:101B370002CAE0FCA3E0FDA3E0FEA3E0FF9002C21F
:101B4700E0F8A3A3A3E0C312145C70229002CAE0DA
:101B5700FCA3E0FDA3E0FEA3E0FF9002C6E0F8A32C
:101B6700E0F9A3E0FAA3E0FBC312145C600690025D
:101B7700D07401F09002D0E0603B9002D9E04401BC
:101B870090D800F090905174F0F07F017E00124AD7
:101B97004674FFF0909007747FF07F017E00124A31
:101BA7004674FFF0909003740FF07F017E00124A95
:101BB7004674FF8017E490D219F090900774F7F0FD
:101BC70090900D74DFF074FFF0909007F07FF47E33
:041BD70001124A4667
:011BDB0022E7
:104D930090C0C0E030E7079002D97402F022E4909B
:044DA30002D9F0221F
:10472C00124DEA124631124949124BFA124C5212EE
:10473C0048DB124A649002D9E0441190D800F09002
:10474C003CD1740193FFC454F02FFF90D85AF090D1
:10475C003CD3740193FE90D85BF090D85CF090D869
:0D476C005DEFF090D85EEEF090D85FF02287
:102A1600011000011300011100010F000112004115
:0B2A260002F7004102F6004102F80038
:1038C000780FE630E71990C19EE0540F600B90C16D
:1038D000AF74C1F0124CD780061243F9124CF07845
:1038E0000FE6FF30E62590C19CE05407640190B0DC
:1038F0000B600574E5F0801374C5F090C196740BED
:10390000F0E4900254F090024C04F0EF20E5047FC4
:103910000180027F0090024CE05F605A90C1A3E0FA
:10392000FF900254E0FE2423F582E43402F583EF95
:10393000F0EEB4010E900224E054701313543F9043
:103940000252F0900252E02401FFE433FE90025450
:10395000E0B50711E4B5060D90C1967403F0E4904C
:10396000024CF08011900254E004F090C1B6E0FFE8
:10397000780FF630E5A6780FE6FD30E43390C1B657
:103980007410F0900223E0FE540F900259F0900260
:1039900052E0700C900259E0B40105900257800D7E
:1039A000E4900258F0EE644F60069002457401F016
:1039B000ED30E22190B00B74C5F0900245E0600557
:1039C000E4F00244C0900258E0600A90025774018B
:0639D000F0900251F0220C
:1032AC00E49002D6F0783676FF7849F67FFF90D01E
:1032BC000FE0541F7848F6124DF8EF54F07836F6BC
:1032CC00EF540F7844F6124DF87845A607124DF8D6
:1032DC007846A6077848E6C394044011124DF87856
:1032EC0049A60706E6D3941040030233FE7848E65D
:1032FC00D394044020E49002D6F09002D6E0C37838
:10330C0049965011124DF89002D6E0244EF8A607BB
:10331C00E004F080E57836E670030233F624F070B2
:10332C00030233C324F070030233F624E060392423
:10333C00F0604F24F070030233F624D06011241097
:10334C0060030233FE7849E6FF12313C0233F17818
:10335C0049E6FFC3941140030233FE123FBF124EE5
:10336C00047849E6FF024D3B7846E6B450127849A2
:10337C00E6B4010C7848E6B40506784EE67839F6E2
:10338C0080637846E6B4500E7848E6B40408124ED2
:10339C0004124B0580577846E6B450087848E6B4DA
:1033AC00030280067846E6B43C05124E04803E903B
:1033BC00D0117410F080367846E6B4500E7848E69A
:1033CC00B40408124E04124B50800F7846E6B450E9
:1033DC000F7848E6B40309124E04E47839F68003FA
:1033EC00124E048008124E048003124E04E490D056
:0233FC0013F0CC
:0133FE0022AC
:03000B000248594F
:10485900C0E0C0F0C083C082C0D075D000C000C025
:1048690001C002C003C004C005C006C007124DC87C
:10487900D28C758CFD758AA8D007D006D005D004D6
:10488900D003D002D001D000D0D0D082D083D0F0D4
:03489900D0E0323A
:03001B0002477920
:10477900C0E0C083C082C0D0C28E758DB1758BE098
:104789009002EEE004F070069002EDE004F0D28EA3
:104799009002EDE0B4011DA3E0B4901890B8B0E028
:1047A90030E40B9002EDE4F0A3F0C28E800690B0E5
:0D47B9000B74D5F0D0D0D082D083D0E03288
:104C890090D220E030E01390D21CE04401F054FEB1
:0B4C9900F078387601E490D219F02288
:0300130002407434
:10407400C0E0C0F0C083C082C0D075D000C000C012
:1040840001C002C003C004C005C006C007900251AD
:10409400E4F090A015E030E21F90A0A07404F0E4D6
:1040A400F090C1B6E0780FF6FF74EFF0EF64206093
:1040B40007C2AF1238C0D2AF9002F7E0602990A0D7
:1040C40016E030E72290A0A174FFF0747FF0900214
:1040D4004A74FFF0758CFD758AA8D28C1232ACC27A
:1040E4008C758CFD758AA890A015E030E00D124CFB
:1040F4008990A0A0E04401F054FEF0D007D006D08F
:1041040005D004D003D002D001D000D0D0D082D0CA
:0641140083D0F0D0E03280
:102A8F0042105A680113000000000000000000000F
:102A9F0000000000000000000000000000004F5484
:102AAF00418000FF0000006C000000005801121070
:102ABF007B00005100000000000000004F364280F4
:102ACF0000FF000001FF00000000000000000000F8
:102ADF00000000000000000000004F28438001FFAD
:102AEF0005040000000000000000000000000000CE
:102AFF0000000000000000004F1A448101FF000099
:102B0F0000000000000000000000000000000000B6
:102B1F000000000000004F2C508101FF0A00000050
:102B2F000000000000000000000000000000000096
:102B3F00000000004F1E518101FF00000000000047
:102B4F000000000000000000000000000000000076
:102B5F0000004F22068101FF8A00000000000000E4
:102B6F000000000000000000000000000000000056
:102B7F004F22068101FF8A000000000000000000C4
:102B8F0000000000000000000000000000004F22C5
:102B9F00068101FF0A000000000000000000000095
:102BAF000000000000000000000000004F2206811E
:102BBF0001FF8A010000000000000000000000007B
:102BCF00000000000000000000004F2C508101FFAA
:102BDF008A0000000000000000000000000000005C
:102BEF00000000000000000044125A900100000095
:102BFF0000000000000000000000000000000000C6
:102C0F00000000000000440200000000000000006F
:102C1F0000000000000000000000000000000000A5
:102C2F000000000000000000000000000000000095
:102C3F000000000000000000000000000000000085
:022C4F00000083
:102A31004102600041022000410245004102440080
:102A4100410256004102430041025E0141025B0026
:102A510041026D0141025C0041024C0041025800FB
:102A61004102510041025700410222004102460049
:102A710041024800410249014102470141021F0050
:0D2A810041026B0046026542105A680113C5
:0B4DDF00EF1FAC0670011E4C70F622A6
:1043F900E4900245F0900258F0900257F090025173
:10440900F0900254F0900252F09002F7F0900247B7
:1044190004F0E490026FF090024FF090025CF0908B
:10442900021D7406F0E490026EF0780D76FF90029A
:104439006004F0E4780EF690022374FFF0A3F0A371
:10444900F0A3F0A3F0A3F0A3F0A3F0A3F0A3F0A3CB
:04445900F0A3F022BA
:074DF10090C1167401F022CD
:10445D00E490C18CF090C18D740AF090C1937408F2
:10446D00F090C19574A0F090C1967403F090C1972F
:10447D007440F090C1997401F090C1A87480F0E47B
:10448D0090C1A9F090C1AC7462F090C19F7468F0B6
:10449D0090C1A27434F090C1317412F090C1327495
:1044AD003CF090C13304F090C13404F090C13574E8
:0344BD0042F022A8
:1049E00090B00B74C4F090B010F090B00874B3F0B5
:1049F000124DF112445D90B00B74E5F090B010745C
:0F4A0000C5F01243F990900574BFF074FFF022D7
:1042B300E490024FF090021DE0FF90024FE0C39F95
:1042C3005054E0FF90026EE075F01EA4248FF58237
:1042D300E5F0342AF583E5822FF582E43583F5830F
:1042E300E49390021EF0EFB4011C90026FE05407B8
:1042F30025E0FF900255F090021EE054F1F04FF0DC
:1043030090026FE004F090021EE090C19AF09002D8
:104313004FE004F0809F90C1987408F0E4F090C1DE
:0B432300997409F09002587401F02218
:10432E00E490024FF090021DE0FF90024FE0FEC3BA
:10433E009F503F74652EF582E43402F583E09002BF
:10434E001EF0EEB4011C90026FE0540725E0FF90C2
:10435E000255F090021EE054F1F04FF090026FE023
:10436E0004F090021EE090C19AF090024FE004F02B
:10437E0080B390C1987408F0E4F090C1997409F07C
:07438E009002587401F022B7
:1047C6007F06900265E4F0A3DFFC9002657442F078
:1047D600A37410F0900225E0900267F0543F25E0A4
:1047E60025E0FF900226E05403FE4F900268F0EEAB
:1047F60025E025E0FF900225E054C0C413135403BE
:094806004F900269F0A37413F055
:01480F002286
:103F07007F017E00124A46900259E0640F60030267
:103F17003FBE900226E020E703023FBE7F647E009B
:103F2700124DDF900225E0541F24FE6027146031F4
:103F370014603B24F460451460602410707990028B
:103F47006E7401F090021D7416F01242B390024A8B
:103F57007401F02290026E7402F090021D740E80BC
:103F67001890026E7403F090021D740A800B900281
:103F77006E7404F090021D7406F0801B780EE690B4
:103F8700026E700B7405F090021D740AF0800874BD
:103F97000BF090021D14F00242B390026E7406F00B
:103FA70090021DF01242B390024A7411F0780D7618
:083FB7000190A0307425F022F6
:1044C000900252E07029900259E024F960051460CE
:1044D0000F804A90026E740DF090021D7402800BE2
:1044E00090026E740CF090021D7406F00242B390BC
:1044F0000259E024F16023240E70227F647E0012B2
:104500004DDFE490026EF090021D7406F01247C673
:0E45100012432E90024A7402F022123F07223C
:10412600024B75E493A3F8E493A34003F68001F2EF
:1041360008DFF48029E493A3F85407240CC8C3339A
:10414600C4540F4420C8834004F456800146F6DF69
:10415600E4800B010204081020408090286BE47E66
:10416600019360BCA3FF543F30E509541FFEE4935E
:10417600A360010ECF54C025E060A840B8E493A325
:10418600FAE493A3F8E493A3C8C582C8CAC583CA50
:10419600F0A3C8C582C8CAC583CADFE9DEE780BE08
:012A8E000047
:10115200E709F608DFFA8046E709F208DFFA803E7F
:1011620088828C83E709F0A3DFFA8032E309F6086C
:10117200DFFA8078E309F208DFFA807088828C83D4
:10118200E309F0A3DFFA806489828A83E0A3F60888
:10119200DFFA805889828A83E0A3F208DFFA804C62
:1011A20080D280FA80C680D4806980F28033801039
:1011B20080A680EA809A80A880DA80E280CA8033A2
:1011C20089828A83ECFAE493A3C8C582C8CCC5831A
:1011D200CCF0A3C8C582C8CCC583CCDFE9DEE780EA
:1011E2000D89828A83E493A3F608DFF9ECFAA9F069
:1011F200EDFB2289828A83ECFAE0A3C8C582C8CCBF
:10120200C583CCF0A3C8C582C8CCC583CCDFEADED7
:10121200E880DB89828A83E493A3F208DFF980CC39
:1012220088F0EF60010E4E60C388F0ED2402B40432
:101232000050B9F582EB2402B4040050AF232345D9
:0612420082239011A2734B
:10124800BB010689828A83E0225002E722BBFE02A4
:09125800E32289828A83E49322D7
:10126100BB010CE58229F582E5833AF583E0225042
:1012710006E92582F8E622BBFE06E92582F8E2228C
:0D128100E58229F582E5833AF583E49322A6
:10128E00BB010689828A83F0225002F722BBFE013F
:02129E00F32239
:1012A000F8BB010DE58229F582E5833AF583E8F084
:1012B000225006E92582C8F622BBFE05E92582C830
:0212C000F22218
:1012C200EF8DF0A4A8F0CF8CF0A428CE8DF0A42E40
:0212D200FE22FA
:1012D400BC000BBE0029EF8DF084FFADF022E4CCFE
:1012E400F875F008EF2FFFEE33FEEC33FCEE9DECC7
:1012F400984005FCEE9DFE0FD5F0E9E4CEFD22ED0D
:10130400F8F5F0EE8420D21CFEADF075F008EF2F56
:10131400FFED33FD4007985006D5F0F222C398FD47
:051324000FD5F0EA22E4
:10132900C5F0F8A3E028F0C5F0F8E582158270024F
:061339001583E038F022EC
:10133F00E88FF0A4CC8BF0A42CFCE98EF0A42CFC4D
:10134F008AF0EDA42CFCEA8EF0A4CDA8F08BF0A4CB
:10135F002DCC3825F0FDE98FF0A42CCD35F0FCEB2A
:10136F008EF0A4FEA9F0EB8FF0A4CFC5F02ECD39EF
:0F137F00FEE43CFCEAA42DCE35F0FDE43CFC225C
:10138E0075F008758200EF2FFFEE33FECD33CDCC16
:10139E0033CCC58233C5829BED9AEC99E582984099
:1013AE000CF582EE9BFEED9AFDEC99FC0FD5F0D676
:1013BE00E4CEFBE4CDFAE4CCF9A88222B800C1B9A0
:1013CE000059BA002DEC8BF084CFCECDFCE5F0CBDE
:1013DE00F97818EF2FFFEE33FEED33FDEC33FCEB17
:1013EE0033FB10D703994004EB99FB0FD8E5E4F9D2
:1013FE00FA227818EF2FFFEE33FEED33FDEC33FCBF
:10140E00C933C910D7059BE99A4007EC9BFCE99AB2
:10141E00F90FD8E0E4C9FAE4CCFB2275F010EF2FF7
:10142E00FFEE33FEED33FDCC33CCC833C810D707F7
:10143E009BEC9AE899400AED9BFDEC9AFCE899F832
:0E144E000FD5F0DAE4CDFBE4CCFAE4C8F922C5
:10145C00EB9FF5F0EA9E42F0E99D42F0E89C45F0E6
:01146C00225D
:10146D00E8600FECC313FCED13FDEE13FEEF13FF5D
:03147D00D8F12281
:10148000E8600FEFC333FFEE33FEED33FDEC33FCCA
:03149000D8F1226E
:0C149300ECF0A3EDF0A3EEF0A3EFF022CC
:10149F00A8828583F0D083D0821214B61214B612AC
:1014AF0014B61214B6E473E493A3C583C5F0C583D1
:1014BF00C8C582C8F0A3C583C5F0C583C8C582C897
:0114CF0022FA
:10154200E5082473F582E43402F583E0050822906D
:101552000270300703900273E475F0011214FC026A
:1015620012482000E97F2ED2008018EF540F2490F9
:10157200D43440D4FF30040BEF24BFB41A0050031C
:101582002461FFE50960021509050CE50C700205EE
:101592000B30070E900270E475F0011214FCEF029A
:1015A200128E024ADE7403D2078003E4C207F508F2
:1015B200900270121513E4F509F50BF50CE50960BC
:1015C200077F2012158580F5750AFFC201C200C28D
:1015D20002C203C205C206C208121551FF700D30C5
:1015E20007057F00121596AF0CAE0B22B4255FC221
:1015F200D5C204121551FF24D0B40A00501A75F056
:101602000A780930D50508B6FF0106C6A426F620D9
:10161200D5047002D20380D924CFB41A00EF50044B
:10162200C2E5D204021797D20180C6D20080C0D28E
:101632000280BCD2D580BAD20580B47F2012158533
:101642002002077401B5090040F1121542FF12157C
:10165200850215BFD208D2068095121542FB1215DB
:1016620042FA121542F94A4B700679687A187BFFE2
:1016720020022EE509602A7E008E827583001212F6
:101682006160060EEE650A70F0C2D5EBC0E0EAC0FA
:10169200E0E9C0E0EE1217DED0E0F9D0E0FAD0E0E7
:1016A200FB121248FF60AAEBC0E0EAC0E0E9C0E02A
:1016B200121585D0E02401F9D0E03400FAD0E0FB25
:1016C200E50A0460DCD50AD980877BFF7A1779DACC
:1016D200D202809C791080027908C206C208800872
:1016E200D2D5790A8004790AC2D5E50A047002F5D6
:1016F2000AE4FAFDFEFF121542FC7B0820011312D8
:101702001542FD7B1030000A121542FE121542FFEF
:101712007B20EC3382D592D55013C3E43000069F70
:10172200FFE49EFEE42001039DFDE49CFCE4CBF873
:10173200C201EC700CCFCECDCCE824F8F870F38067
:1017420017C3EF33FFEE33FEED33FDEC33FCEB3327
:10175200FB994002FB0FD8E9EB300105F8D0E0C459
:1017620048B201C0E00AEC4D4E4F78207B0070C2B7
:10177200EAB50A0040BCC0E01217E0D0F0D0E02089
:101782000104C4C0E0C4B201C0F012156ED0F0D59D
:10179200F0EB0215BF12151C165C5316D658162D07
:1017A2004C16294216DA4F16E24416E24916424313
:0817B20016E85516CC4616CCD2
:1017BA004516CC4718885016312D16352E16582B3B
:1017CA0016392316562018712A15F14800001650AA
:1017DA003F3F3F00790AA2D5200314300509B9100A
:1017EA00020404B9080104A2D5200602500104200B
:1017FA0002689202B509005034C0E07F2030031914
:10180A007F30A20272067205500F121837C202C246
:10181A0006C205C2087F30800F300503E9C0E01216
:10182A001585300503D0E0F9D0E0B509CC300517AD
:10183A007F30B9100C1215857F583004077F7880E5
:10184A0003B908031215853002057F2D0215857F1D
:10185A00202008F87F2B2006F322920280CF286EE0
:10186A00756C6C2900D2011215423001F8C2017858
:10187A000930D50108F60215F12D504349581215C1
:10188A00422403B405004001E490188393121576AC
:0D189A00743A121576D2037509040216D6B1
:1014D000EF4E6012EF60010EEDBB010B89828A8333
:1014E000F0A3DFFCDEFA2289F05007F709DFFCA940
:0C14F000F022BBFEFCF309DFFCA9F02297
:1014FC00F8E0FBA3A3E0F925F0F0E5821582700279
:07150C001583E0FA38F0221C
:09151300EBF0A3EAF0A3E9F022D9
:10151C00D083D082F8E4937012740193700DA3A35E
:10152C0093F8740193F5828883E473740293686072
:06153C00EFA3A3A380DF72
:104ADE00EFB40A07740D124AE9740A309811A899B6
:104AEE00B8130CC2983098FDA899C298B811F63038
:074AFE0099FDC299F5992210
:00000001FF
